{
  "contractName": "HealthRecords",
  "abi": [
    {
      "inputs": [
        {
          "internalType": "uint256",
          "name": "",
          "type": "uint256"
        }
      ],
      "name": "tasks",
      "outputs": [
        {
          "internalType": "string",
          "name": "detail",
          "type": "string"
        }
      ],
      "stateMutability": "view",
      "type": "function",
      "constant": true
    },
    {
      "inputs": [
        {
          "internalType": "string",
          "name": "_detail",
          "type": "string"
        }
      ],
      "name": "inserttask",
      "outputs": [],
      "stateMutability": "nonpayable",
      "type": "function"
    }
  ],
  "bytecode": "0x608060405234801561001057600080fd5b5061075c806100206000396000f3fe608060405234801561001057600080fd5b50600436106100365760003560e01c80638d9776721461003b578063980b167c1461006b575b600080fd5b610055600480360381019061005091906101eb565b610087565b60405161006291906102a8565b60405180910390f35b610085600480360381019061008091906103ff565b610139565b005b6000818154811061009757600080fd5b906000526020600020016000915090508060000180546100b690610477565b80601f01602080910402602001604051908101604052809291908181526020018280546100e290610477565b801561012f5780601f106101045761010080835404028352916020019161012f565b820191906000526020600020905b81548152906001019060200180831161011257829003601f168201915b5050505050905081565b61014161018e565b8181600001819052506000819080600181540180825580915050600190039060005260206000200160009091909190915060008201518160000190816101879190610654565b5050505050565b6040518060200160405280606081525090565b6000604051905090565b600080fd5b600080fd5b6000819050919050565b6101c8816101b5565b81146101d357600080fd5b50565b6000813590506101e5816101bf565b92915050565b600060208284031215610201576102006101ab565b5b600061020f848285016101d6565b91505092915050565b600081519050919050565b600082825260208201905092915050565b60005b83811015610252578082015181840152602081019050610237565b60008484015250505050565b6000601f19601f8301169050919050565b600061027a82610218565b6102848185610223565b9350610294818560208601610234565b61029d8161025e565b840191505092915050565b600060208201905081810360008301526102c2818461026f565b905092915050565b600080fd5b600080fd5b7f4e487b7100000000000000000000000000000000000000000000000000000000600052604160045260246000fd5b61030c8261025e565b810181811067ffffffffffffffff8211171561032b5761032a6102d4565b5b80604052505050565b600061033e6101a1565b905061034a8282610303565b919050565b600067ffffffffffffffff82111561036a576103696102d4565b5b6103738261025e565b9050602081019050919050565b82818337600083830152505050565b60006103a261039d8461034f565b610334565b9050828152602081018484840111156103be576103bd6102cf565b5b6103c9848285610380565b509392505050565b600082601f8301126103e6576103e56102ca565b5b81356103f684826020860161038f565b91505092915050565b600060208284031215610415576104146101ab565b5b600082013567ffffffffffffffff811115610433576104326101b0565b5b61043f848285016103d1565b91505092915050565b7f4e487b7100000000000000000000000000000000000000000000000000000000600052602260045260246000fd5b6000600282049050600182168061048f57607f821691505b6020821081036104a2576104a1610448565b5b50919050565b60008190508160005260206000209050919050565b60006020601f8301049050919050565b600082821b905092915050565b60006008830261050a7fffffffffffffffffffffffffffffffffffffffffffffffffffffffffffffffff826104cd565b61051486836104cd565b95508019841693508086168417925050509392505050565b6000819050919050565b600061055161054c610547846101b5565b61052c565b6101b5565b9050919050565b6000819050919050565b61056b83610536565b61057f61057782610558565b8484546104da565b825550505050565b600090565b610594610587565b61059f818484610562565b505050565b5b818110156105c3576105b860008261058c565b6001810190506105a5565b5050565b601f821115610608576105d9816104a8565b6105e2846104bd565b810160208510156105f1578190505b6106056105fd856104bd565b8301826105a4565b50505b505050565b600082821c905092915050565b600061062b6000198460080261060d565b1980831691505092915050565b6000610644838361061a565b9150826002028217905092915050565b61065d82610218565b67ffffffffffffffff811115610676576106756102d4565b5b6106808254610477565b61068b8282856105c7565b600060209050601f8311600181146106be57600084156106ac578287015190505b6106b68582610638565b86555061071e565b601f1984166106cc866104a8565b60005b828110156106f4578489015182556001820191506020850194506020810190506106cf565b86831015610711578489015161070d601f89168261061a565b8355505b6001600288020188555050505b50505050505056fea264697066735822122036021cde69aab53f13c32ffe83e5b56fea627e9c81db14ca7efd92a12031889d64736f6c63430008130033",
  "immutableReferences": {},
  "source": "//SPDX-License-Identifier: MIT\r\npragma solidity ^0.8.17;\r\n\r\ncontract HealthRecords\r\n{\r\n    struct task\r\n    {\r\n        string detail;\r\n    }\r\n    task[] public tasks;\r\n\r\n    function inserttask(string memory _detail)public\r\n    {\r\n        task memory newtask;\r\n        newtask.detail= _detail;\r\n        tasks.push(newtask);\r\n    }\r\n}",
  "sourcePath": "Z:\\healthplatform\\contracts\\HealthRecords.sol",
  "compiler": {
    "name": "solc",
    "version": "0.8.19+commit.7dd6d404.Emscripten.clang"
  },
  "schemaVersion": "3.4.13",
  "updatedAt": "2023-11-27T10:53:22.413Z",
  "networkType": "ethereum",
  "devdoc": {
    "kind": "dev",
    "methods": {},
    "version": 1
  },
  "userdoc": {
    "kind": "user",
    "methods": {},
    "version": 1
  }
}